:100000000C9461000C947E000C947E000C947E0095
:100010000C947E000C947E000C947E000C947E0068
:100020000C947E000C947E000C947E000C947E0058
:100030000C947E000C947E000C947E000C947E0048
:100040000C94F5000C947E000C947E000C947E00C1
:100050000C947E000C947E000C947E000C947E0028
:100060000C947E000C947E00000000002400270009
:100070002A0000000000250028002B0000000000DE
:1000800023002600290004040404040404040202DA
:100090000202020203030303030301020408102007
:1000A0004080010204081020010204081020000012
:1000B0000007000201000003040600000000000029
:1000C000000011241FBECFEFD8E0DEBFCDBF11E08E
:1000D000A0E0B1E0ECECF4E002C005900D92AA3093
:1000E000B107D9F711E0AAE0B1E001C01D92A33138
:1000F000B107E1F70E94E0000C9480000C9400002E
:10010000F8940C9464028F929F92AF92BF92CF9218
:10011000DF92EF92FF920F931F93CF93DF935C01D7
:100120006B018C018FEF9FEF4B01089481089108C0
:100130001CC0EC018FEFCF3FD80709F4E401F801B0
:10014000808161E00E941002CC0FDD1FCA0DDB1D13
:10015000888160E00E94100268EC70E080E090E02E
:100160000E943D010E5F1F4FC7017C010894E11CF6
:10017000F11CEC14FD04ECF2DF91CF911F910F9173
:10018000FF90EF90DF90CF90BF90AF909F908F90B7
:10019000089580E091E065E070E00E94830008959A
:1001A000CF93DF93C0E0D1E0888161E00E94D1016C
:1001B000229681E0CA30D807B9F7DF91CF91089530
:1001C000CF93DF930E94960161E070E080E090E0C1
:1001D0000E943D010E94D000C0E0D0E00E94C90012
:1001E0002097E1F30E940000F9CF1F920F920FB603
:1001F0000F9211242F933F938F939F93AF93BF93AD
:1002000080910E0190910F01A0911001B091110108
:10021000309112010196A11DB11D232F2D5F2D37A5
:1002200020F02D570196A11DB11D2093120180933E
:100230000E0190930F01A0931001B09311018091D2
:100240000A0190910B01A0910C01B0910D01019652
:10025000A11DB11D80930A0190930B01A0930C0185
:10026000B0930D01BF91AF919F918F913F912F91CD
:100270000F900FBE0F901F9018959B01AC017FB798
:10028000F89480910A0190910B01A0910C01B0911A
:100290000D0166B5A89B05C06F3F19F00196A11D21
:1002A000B11D7FBFBA2FA92F982F8827860F911DC8
:1002B000A11DB11D62E0880F991FAA1FBB1F6A957F
:1002C000D1F7BC012DC0FFB7F89480910A0190913D
:1002D0000B01A0910C01B0910D01E6B5A89B05C0E2
:1002E000EF3F19F00196A11DB11DFFBFBA2FA92F35
:1002F000982F88278E0F911DA11DB11DE2E0880F58
:10030000991FAA1FBB1FEA95D1F7861B970B885E22
:100310009340C8F2215030404040504068517C4FDB
:10032000211531054105510571F60895789484B57C
:10033000826084BD84B5816084BD85B5826085BDE1
:1003400085B5816085BDEEE6F0E0808181608083C7
:10035000E1E8F0E0108280818260808380818160AA
:100360008083E0E8F0E0808181608083E1EBF0E071
:10037000808184608083E0EBF0E080818160808315
:10038000EAE7F0E0808184608083808182608083FE
:100390008081816080838081806880831092C10029
:1003A0000895CF93DF93482F50E0CA0186569F4FA0
:1003B000FC0134914A575F4FFA018491882369F117
:1003C00090E0880F991FFC01E859FF4FA591B49167
:1003D000FC01EE58FF4FC591D491662351F42FB71D
:1003E000F8948C91932F909589238C9388818923FD
:1003F0000BC0623061F42FB7F8948C91932F9095D5
:1004000089238C938881832B88832FBF06C09FB755
:10041000F8948C91832B8C939FBFDF91CF9108959B
:10042000482F50E0CA0182559F4FFC012491CA0118
:1004300086569F4FFC0194914A575F4FFA013491C1
:10044000332309F440C0222351F1233071F02430CA
:1004500028F42130A1F0223011F514C02630B1F07B
:100460002730C1F02430D9F404C0809180008F7708
:1004700003C0809180008F7D8093800010C084B580
:100480008F7702C084B58F7D84BD09C08091B00094
:100490008F7703C08091B0008F7D8093B000E32FF1
:1004A000F0E0EE0FFF1FEE58FF4FA591B4912FB76C
:1004B000F894662321F48C919095892302C08C9145
:0C04C000892B8C932FBF0895F894FFCF78
:0A04CC000100020003000400050017
:00000001FF
